{
  "contractName": "Decentragram",
  "abi": [
    {
      "anonymous": false,
      "inputs": [
        {
          "indexed": false,
          "internalType": "uint256",
          "name": "id",
          "type": "uint256"
        },
        {
          "indexed": false,
          "internalType": "string",
          "name": "hashes",
          "type": "string"
        },
        {
          "indexed": false,
          "internalType": "string",
          "name": "description",
          "type": "string"
        },
        {
          "indexed": false,
          "internalType": "string",
          "name": "githublink",
          "type": "string"
        },
        {
          "indexed": false,
          "internalType": "uint256",
          "name": "fund",
          "type": "uint256"
        },
        {
          "indexed": false,
          "internalType": "address payable",
          "name": "developer",
          "type": "address"
        }
      ],
      "name": "ApiCreated",
      "type": "event"
    },
    {
      "anonymous": false,
      "inputs": [
        {
          "indexed": false,
          "internalType": "uint256",
          "name": "id",
          "type": "uint256"
        },
        {
          "indexed": false,
          "internalType": "string",
          "name": "hashes",
          "type": "string"
        },
        {
          "indexed": false,
          "internalType": "string",
          "name": "description",
          "type": "string"
        },
        {
          "indexed": false,
          "internalType": "uint256",
          "name": "fund",
          "type": "uint256"
        },
        {
          "indexed": false,
          "internalType": "address payable",
          "name": "developer",
          "type": "address"
        }
      ],
      "name": "ApiFunded",
      "type": "event"
    },
    {
      "constant": true,
      "inputs": [],
      "name": "apiCount",
      "outputs": [
        {
          "internalType": "uint256",
          "name": "",
          "type": "uint256"
        }
      ],
      "payable": false,
      "stateMutability": "view",
      "type": "function"
    },
    {
      "constant": true,
      "inputs": [
        {
          "internalType": "uint256",
          "name": "",
          "type": "uint256"
        }
      ],
      "name": "apis",
      "outputs": [
        {
          "internalType": "uint256",
          "name": "id",
          "type": "uint256"
        },
        {
          "internalType": "string",
          "name": "hashes",
          "type": "string"
        },
        {
          "internalType": "string",
          "name": "description",
          "type": "string"
        },
        {
          "internalType": "string",
          "name": "githublink",
          "type": "string"
        },
        {
          "internalType": "uint256",
          "name": "fund",
          "type": "uint256"
        },
        {
          "internalType": "address payable",
          "name": "developer",
          "type": "address"
        }
      ],
      "payable": false,
      "stateMutability": "view",
      "type": "function"
    },
    {
      "constant": true,
      "inputs": [],
      "name": "name",
      "outputs": [
        {
          "internalType": "string",
          "name": "",
          "type": "string"
        }
      ],
      "payable": false,
      "stateMutability": "view",
      "type": "function"
    },
    {
      "constant": false,
      "inputs": [
        {
          "internalType": "string",
          "name": "_apiHash",
          "type": "string"
        },
        {
          "internalType": "string",
          "name": "_description",
          "type": "string"
        },
        {
          "internalType": "string",
          "name": "_githublink",
          "type": "string"
        }
      ],
      "name": "createApi",
      "outputs": [],
      "payable": false,
      "stateMutability": "nonpayable",
      "type": "function"
    },
    {
      "constant": false,
      "inputs": [
        {
          "internalType": "uint256",
          "name": "_id",
          "type": "uint256"
        }
      ],
      "name": "fundApi",
      "outputs": [],
      "payable": true,
      "stateMutability": "payable",
      "type": "function"
    }
  ],
  "bytecode": "0x60806040526040518060400160405280600c81526020017f446563656e7472616772616d000000000000000000000000000000000000000081525060009080519060200190620000519291906200006b565b5060006001553480156200006457600080fd5b506200011a565b828054600181600116156101000203166002900490600052602060002090601f016020900481019282601f10620000ae57805160ff1916838001178555620000df565b82800160010185558215620000df579182015b82811115620000de578251825591602001919060010190620000c1565b5b509050620000ee9190620000f2565b5090565b6200011791905b8082111562000113576000816000905550600101620000f9565b5090565b90565b61114b806200012a6000396000f3fe60806040526004361061004a5760003560e01c806306fdde031461004f5780634483bf8b146100df5780638b394066146102d5578063af6e568914610300578063de20c9e6146104cd575b600080fd5b34801561005b57600080fd5b506100646104fb565b6040518080602001828103825283818151815260200191508051906020019080838360005b838110156100a4578082015181840152602081019050610089565b50505050905090810190601f1680156100d15780820380516001836020036101000a031916815260200191505b509250505060405180910390f35b3480156100eb57600080fd5b506102d36004803603606081101561010257600080fd5b810190808035906020019064010000000081111561011f57600080fd5b82018360208201111561013157600080fd5b8035906020019184600183028401116401000000008311171561015357600080fd5b91908080601f016020809104026020016040519081016040528093929190818152602001838380828437600081840152601f19601f820116905080830192505050505050509192919290803590602001906401000000008111156101b657600080fd5b8201836020820111156101c857600080fd5b803590602001918460018302840111640100000000831117156101ea57600080fd5b91908080601f016020809104026020016040519081016040528093929190818152602001838380828437600081840152601f19601f8201169050808301925050505050505091929192908035906020019064010000000081111561024d57600080fd5b82018360208201111561025f57600080fd5b8035906020019184600183028401116401000000008311171561028157600080fd5b91908080601f016020809104026020016040519081016040528093929190818152602001838380828437600081840152601f19601f820116905080830192505050505050509192919290505050610599565b005b3480156102e157600080fd5b506102ea6108e1565b6040518082815260200191505060405180910390f35b34801561030c57600080fd5b506103396004803603602081101561032357600080fd5b81019080803590602001909291905050506108e7565b604051808781526020018060200180602001806020018681526020018573ffffffffffffffffffffffffffffffffffffffff1673ffffffffffffffffffffffffffffffffffffffff168152602001848103845289818151815260200191508051906020019080838360005b838110156103bf5780820151818401526020810190506103a4565b50505050905090810190601f1680156103ec5780820380516001836020036101000a031916815260200191505b50848103835288818151815260200191508051906020019080838360005b8381101561042557808201518184015260208101905061040a565b50505050905090810190601f1680156104525780820380516001836020036101000a031916815260200191505b50848103825287818151815260200191508051906020019080838360005b8381101561048b578082015181840152602081019050610470565b50505050905090810190601f1680156104b85780820380516001836020036101000a031916815260200191505b50995050505050505050505060405180910390f35b6104f9600480360360208110156104e357600080fd5b8101908080359060200190929190505050610b0b565b005b60008054600181600116156101000203166002900480601f0160208091040260200160405190810160405280929190818152602001828054600181600116156101000203166002900480156105915780601f1061056657610100808354040283529160200191610591565b820191906000526020600020905b81548152906001019060200180831161057457829003601f168201915b505050505081565b60008351116105a757600080fd5b60008251116105b557600080fd5b60008151116105c357600080fd5b600073ffffffffffffffffffffffffffffffffffffffff163373ffffffffffffffffffffffffffffffffffffffff1614156105fd57600080fd5b6001600081548092919060010191905055506040518060c001604052806001548152602001848152602001838152602001828152602001600081526020013373ffffffffffffffffffffffffffffffffffffffff16815250600260006001548152602001908152602001600020600082015181600001556020820151816001019080519060200190610690929190611025565b5060408201518160020190805190602001906106ad929190611025565b5060608201518160030190805190602001906106ca929190611025565b506080820151816004015560a08201518160050160006101000a81548173ffffffffffffffffffffffffffffffffffffffff021916908373ffffffffffffffffffffffffffffffffffffffff1602179055509050507f147639acace7fc7c29532ab1fa8d188621ae6e9b1936d7d84d123a548c433427600154848484600033604051808781526020018060200180602001806020018681526020018573ffffffffffffffffffffffffffffffffffffffff1673ffffffffffffffffffffffffffffffffffffffff168152602001848103845289818151815260200191508051906020019080838360005b838110156107cf5780820151818401526020810190506107b4565b50505050905090810190601f1680156107fc5780820380516001836020036101000a031916815260200191505b50848103835288818151815260200191508051906020019080838360005b8381101561083557808201518184015260208101905061081a565b50505050905090810190601f1680156108625780820380516001836020036101000a031916815260200191505b50848103825287818151815260200191508051906020019080838360005b8381101561089b578082015181840152602081019050610880565b50505050905090810190601f1680156108c85780820380516001836020036101000a031916815260200191505b50995050505050505050505060405180910390a1505050565b60015481565b6002602052806000526040600020600091509050806000015490806001018054600181600116156101000203166002900480601f0160208091040260200160405190810160405280929190818152602001828054600181600116156101000203166002900480156109995780601f1061096e57610100808354040283529160200191610999565b820191906000526020600020905b81548152906001019060200180831161097c57829003601f168201915b505050505090806002018054600181600116156101000203166002900480601f016020809104026020016040519081016040528092919081815260200182805460018160011615610100020316600290048015610a375780601f10610a0c57610100808354040283529160200191610a37565b820191906000526020600020905b815481529060010190602001808311610a1a57829003601f168201915b505050505090806003018054600181600116156101000203166002900480601f016020809104026020016040519081016040528092919081815260200182805460018160011615610100020316600290048015610ad55780601f10610aaa57610100808354040283529160200191610ad5565b820191906000526020600020905b815481529060010190602001808311610ab857829003601f168201915b5050505050908060040154908060050160009054906101000a900473ffffffffffffffffffffffffffffffffffffffff16905086565b600081118015610b1d57506001548111155b610b2657600080fd5b610b2e6110a5565b600260008381526020019081526020016000206040518060c001604052908160008201548152602001600182018054600181600116156101000203166002900480601f016020809104026020016040519081016040528092919081815260200182805460018160011615610100020316600290048015610bef5780601f10610bc457610100808354040283529160200191610bef565b820191906000526020600020905b815481529060010190602001808311610bd257829003601f168201915b50505050508152602001600282018054600181600116156101000203166002900480601f016020809104026020016040519081016040528092919081815260200182805460018160011615610100020316600290048015610c915780601f10610c6657610100808354040283529160200191610c91565b820191906000526020600020905b815481529060010190602001808311610c7457829003601f168201915b50505050508152602001600382018054600181600116156101000203166002900480601f016020809104026020016040519081016040528092919081815260200182805460018160011615610100020316600290048015610d335780601f10610d0857610100808354040283529160200191610d33565b820191906000526020600020905b815481529060010190602001808311610d1657829003601f168201915b50505050508152602001600482015481526020016005820160009054906101000a900473ffffffffffffffffffffffffffffffffffffffff1673ffffffffffffffffffffffffffffffffffffffff1673ffffffffffffffffffffffffffffffffffffffff1681525050905060008160a0015190508073ffffffffffffffffffffffffffffffffffffffff166108fc349081150290604051600060405180830381858888f19350505050158015610ded573d6000803e3d6000fd5b50348260800151018260800181815250508160026000858152602001908152602001600020600082015181600001556020820151816001019080519060200190610e38929190611025565b506040820151816002019080519060200190610e55929190611025565b506060820151816003019080519060200190610e72929190611025565b506080820151816004015560a08201518160050160006101000a81548173ffffffffffffffffffffffffffffffffffffffff021916908373ffffffffffffffffffffffffffffffffffffffff1602179055509050507f11f76584e9095495d5f4a9d675abd01d9d8f33a26764b4201d4106faa467382f83836020015184604001518560800151856040518086815260200180602001806020018581526020018473ffffffffffffffffffffffffffffffffffffffff1673ffffffffffffffffffffffffffffffffffffffff168152602001838103835287818151815260200191508051906020019080838360005b83811015610f7b578082015181840152602081019050610f60565b50505050905090810190601f168015610fa85780820380516001836020036101000a031916815260200191505b50838103825286818151815260200191508051906020019080838360005b83811015610fe1578082015181840152602081019050610fc6565b50505050905090810190601f16801561100e5780820380516001836020036101000a031916815260200191505b5097505050505050505060405180910390a1505050565b828054600181600116156101000203166002900490600052602060002090601f016020900481019282601f1061106657805160ff1916838001178555611094565b82800160010185558215611094579182015b82811115611093578251825591602001919060010190611078565b5b5090506110a191906110f1565b5090565b6040518060c001604052806000815260200160608152602001606081526020016060815260200160008152602001600073ffffffffffffffffffffffffffffffffffffffff1681525090565b61111391905b8082111561110f5760008160009055506001016110f7565b5090565b9056fea265627a7a7231582061697f46cd79e709ac88bec5e699390ac919a5ed7fc71570faa81446b1d72f8764736f6c63430005100032",
  "source": "pragma solidity ^0.5.0;\n\ncontract Decentragram {\n  string public name = \"Decentragram\";\n  \n  // Store Images\n\n  uint public apiCount = 0;\n\n  mapping(uint => Api) public apis;\n// changed tipAmount into like\n// changed hash into hashes\n// changed author into developer\n\n\n// changed Image into Api and images into apis\n\n  struct Api {\n    uint id;\n    string hashes;\n    string description;\n    string githublink;\n    uint fund;\n    address payable developer;\n\n  }\n\n  event ApiCreated(\n    uint id,\n    string hashes,\n    string description,\n    string githublink,\n    uint fund,\n    address payable developer\n\n  );\n\n\n  event ApiFunded(\n    uint id,\n    string hashes,\n    string description,\n    uint fund,\n    address payable developer\n\n  );\n\n  //Create Images\n\n  function createApi(string memory _apiHash, string memory _description, string memory _githublink) public {\n    require(bytes(_apiHash).length > 0);\n    \n    require(bytes(_description).length > 0);\n\n    require(bytes(_githublink).length > 0);\n\n    require(msg.sender != address(0x0));\n\n\n    // increment\n    apiCount ++;\n    // add image to contract\n    apis[apiCount] = Api(apiCount, _apiHash, _description, _githublink, 0, msg.sender);\n\n    emit ApiCreated(apiCount, _apiHash, _description, _githublink, 0, msg.sender);\n  }\n\n\nfunction fundApi(uint _id) public payable {\n  require(_id > 0 && _id <= apiCount);\n  Api memory _api = apis[_id];\n  address payable _developer = _api.developer;\n  address(_developer).transfer(msg.value);\n  _api.fund = _api.fund + msg.value;\n  apis[_id] = _api;\n  emit ApiFunded(_id, _api.hashes, _api.description, _api.fund, _developer);\n}\n\n\n}\n",
  "sourcePath": "/home/zulehuma/Downloads/dapp1/src/contracts/Decentragram.sol",
  "compiler": {
    "name": "solc",
    "version": "0.5.16+commit.9c3226ce.Emscripten.clang"
  },
  "schemaVersion": "3.4.3",
  "updatedAt": "2021-08-22T15:22:47.560Z",
  "networkType": "ethereum",
  "devdoc": {
    "methods": {}
  },
  "userdoc": {
    "methods": {}
  }
}