{
  "contractName": "Decentragram",
  "abi": [
    {
      "anonymous": false,
      "inputs": [
        {
          "indexed": false,
          "internalType": "uint256",
          "name": "id",
          "type": "uint256"
        },
        {
          "indexed": false,
          "internalType": "string",
          "name": "hashes",
          "type": "string"
        },
        {
          "indexed": false,
          "internalType": "string",
          "name": "description",
          "type": "string"
        },
        {
          "indexed": false,
          "internalType": "uint256",
          "name": "fund",
          "type": "uint256"
        },
        {
          "indexed": false,
          "internalType": "address payable",
          "name": "developer",
          "type": "address"
        }
      ],
      "name": "ApiCreated",
      "type": "event"
    },
    {
      "anonymous": false,
      "inputs": [
        {
          "indexed": false,
          "internalType": "uint256",
          "name": "id",
          "type": "uint256"
        },
        {
          "indexed": false,
          "internalType": "string",
          "name": "hashes",
          "type": "string"
        },
        {
          "indexed": false,
          "internalType": "string",
          "name": "description",
          "type": "string"
        },
        {
          "indexed": false,
          "internalType": "uint256",
          "name": "fund",
          "type": "uint256"
        },
        {
          "indexed": false,
          "internalType": "address payable",
          "name": "developer",
          "type": "address"
        }
      ],
      "name": "ApiFunded",
      "type": "event"
    },
    {
      "constant": true,
      "inputs": [],
      "name": "apiCount",
      "outputs": [
        {
          "internalType": "uint256",
          "name": "",
          "type": "uint256"
        }
      ],
      "payable": false,
      "stateMutability": "view",
      "type": "function"
    },
    {
      "constant": true,
      "inputs": [
        {
          "internalType": "uint256",
          "name": "",
          "type": "uint256"
        }
      ],
      "name": "apis",
      "outputs": [
        {
          "internalType": "uint256",
          "name": "id",
          "type": "uint256"
        },
        {
          "internalType": "string",
          "name": "hashes",
          "type": "string"
        },
        {
          "internalType": "string",
          "name": "description",
          "type": "string"
        },
        {
          "internalType": "uint256",
          "name": "fund",
          "type": "uint256"
        },
        {
          "internalType": "address payable",
          "name": "developer",
          "type": "address"
        }
      ],
      "payable": false,
      "stateMutability": "view",
      "type": "function"
    },
    {
      "constant": true,
      "inputs": [],
      "name": "name",
      "outputs": [
        {
          "internalType": "string",
          "name": "",
          "type": "string"
        }
      ],
      "payable": false,
      "stateMutability": "view",
      "type": "function"
    },
    {
      "constant": false,
      "inputs": [
        {
          "internalType": "string",
          "name": "_apiHash",
          "type": "string"
        },
        {
          "internalType": "string",
          "name": "_description",
          "type": "string"
        }
      ],
      "name": "createApi",
      "outputs": [],
      "payable": false,
      "stateMutability": "nonpayable",
      "type": "function"
    },
    {
      "constant": false,
      "inputs": [
        {
          "internalType": "uint256",
          "name": "_id",
          "type": "uint256"
        }
      ],
      "name": "fundApi",
      "outputs": [],
      "payable": true,
      "stateMutability": "payable",
      "type": "function"
    }
  ],
  "bytecode": "0x60806040526040518060400160405280600c81526020017f446563656e7472616772616d00000000000000000000000000000000000000008152506000908051906020019061004f929190610067565b50600060015534801561006157600080fd5b5061010c565b828054600181600116156101000203166002900490600052602060002090601f016020900481019282601f106100a857805160ff19168380011785556100d6565b828001600101855582156100d6579182015b828111156100d55782518255916020019190600101906100ba565b5b5090506100e391906100e7565b5090565b61010991905b808211156101055760008160009055506001016100ed565b5090565b90565b610e458061011b6000396000f3fe60806040526004361061004a5760003560e01c806306fdde031461004f5780638b394066146100df578063af6e56891461010a578063c4e6683e1461026b578063de20c9e6146103ca575b600080fd5b34801561005b57600080fd5b506100646103f8565b6040518080602001828103825283818151815260200191508051906020019080838360005b838110156100a4578082015181840152602081019050610089565b50505050905090810190601f1680156100d15780820380516001836020036101000a031916815260200191505b509250505060405180910390f35b3480156100eb57600080fd5b506100f4610496565b6040518082815260200191505060405180910390f35b34801561011657600080fd5b506101436004803603602081101561012d57600080fd5b810190808035906020019092919050505061049c565b6040518086815260200180602001806020018581526020018473ffffffffffffffffffffffffffffffffffffffff1673ffffffffffffffffffffffffffffffffffffffff168152602001838103835287818151815260200191508051906020019080838360005b838110156101c55780820151818401526020810190506101aa565b50505050905090810190601f1680156101f25780820380516001836020036101000a031916815260200191505b50838103825286818151815260200191508051906020019080838360005b8381101561022b578082015181840152602081019050610210565b50505050905090810190601f1680156102585780820380516001836020036101000a031916815260200191505b5097505050505050505060405180910390f35b34801561027757600080fd5b506103c86004803603604081101561028e57600080fd5b81019080803590602001906401000000008111156102ab57600080fd5b8201836020820111156102bd57600080fd5b803590602001918460018302840111640100000000831117156102df57600080fd5b91908080601f016020809104026020016040519081016040528093929190818152602001838380828437600081840152601f19601f8201169050808301925050505050505091929192908035906020019064010000000081111561034257600080fd5b82018360208201111561035457600080fd5b8035906020019184600183028401116401000000008311171561037657600080fd5b91908080601f016020809104026020016040519081016040528093929190818152602001838380828437600081840152601f19601f820116905080830192505050505050509192919290505050610622565b005b6103f6600480360360208110156103e057600080fd5b81019080803590602001909291905050506108cb565b005b60008054600181600116156101000203166002900480601f01602080910402602001604051908101604052809291908181526020018280546001816001161561010002031660029004801561048e5780601f106104635761010080835404028352916020019161048e565b820191906000526020600020905b81548152906001019060200180831161047157829003601f168201915b505050505081565b60015481565b6002602052806000526040600020600091509050806000015490806001018054600181600116156101000203166002900480601f01602080910402602001604051908101604052809291908181526020018280546001816001161561010002031660029004801561054e5780601f106105235761010080835404028352916020019161054e565b820191906000526020600020905b81548152906001019060200180831161053157829003601f168201915b505050505090806002018054600181600116156101000203166002900480601f0160208091040260200160405190810160405280929190818152602001828054600181600116156101000203166002900480156105ec5780601f106105c1576101008083540402835291602001916105ec565b820191906000526020600020905b8154815290600101906020018083116105cf57829003601f168201915b5050505050908060030154908060040160009054906101000a900473ffffffffffffffffffffffffffffffffffffffff16905085565b600082511161063057600080fd5b600081511161063e57600080fd5b600073ffffffffffffffffffffffffffffffffffffffff163373ffffffffffffffffffffffffffffffffffffffff16141561067857600080fd5b6001600081548092919060010191905055506040518060a001604052806001548152602001838152602001828152602001600081526020013373ffffffffffffffffffffffffffffffffffffffff16815250600260006001548152602001908152602001600020600082015181600001556020820151816001019080519060200190610705929190610d26565b506040820151816002019080519060200190610722929190610d26565b506060820151816003015560808201518160040160006101000a81548173ffffffffffffffffffffffffffffffffffffffff021916908373ffffffffffffffffffffffffffffffffffffffff1602179055509050507facf2041c462973a26cdb3c56abb74bb77c57879f25d214253331d624cfbf3e8260015483836000336040518086815260200180602001806020018581526020018473ffffffffffffffffffffffffffffffffffffffff1673ffffffffffffffffffffffffffffffffffffffff168152602001838103835287818151815260200191508051906020019080838360005b83811015610822578082015181840152602081019050610807565b50505050905090810190601f16801561084f5780820380516001836020036101000a031916815260200191505b50838103825286818151815260200191508051906020019080838360005b8381101561088857808201518184015260208101905061086d565b50505050905090810190601f1680156108b55780820380516001836020036101000a031916815260200191505b5097505050505050505060405180910390a15050565b6000811180156108dd57506001548111155b6108e657600080fd5b6108ee610da6565b600260008381526020019081526020016000206040518060a001604052908160008201548152602001600182018054600181600116156101000203166002900480601f0160208091040260200160405190810160405280929190818152602001828054600181600116156101000203166002900480156109af5780601f10610984576101008083540402835291602001916109af565b820191906000526020600020905b81548152906001019060200180831161099257829003601f168201915b50505050508152602001600282018054600181600116156101000203166002900480601f016020809104026020016040519081016040528092919081815260200182805460018160011615610100020316600290048015610a515780601f10610a2657610100808354040283529160200191610a51565b820191906000526020600020905b815481529060010190602001808311610a3457829003601f168201915b50505050508152602001600382015481526020016004820160009054906101000a900473ffffffffffffffffffffffffffffffffffffffff1673ffffffffffffffffffffffffffffffffffffffff1673ffffffffffffffffffffffffffffffffffffffff168152505090506000816080015190508073ffffffffffffffffffffffffffffffffffffffff166108fc349081150290604051600060405180830381858888f19350505050158015610b0b573d6000803e3d6000fd5b50348260600151018260600181815250508160026000858152602001908152602001600020600082015181600001556020820151816001019080519060200190610b56929190610d26565b506040820151816002019080519060200190610b73929190610d26565b506060820151816003015560808201518160040160006101000a81548173ffffffffffffffffffffffffffffffffffffffff021916908373ffffffffffffffffffffffffffffffffffffffff1602179055509050507f11f76584e9095495d5f4a9d675abd01d9d8f33a26764b4201d4106faa467382f83836020015184604001518560600151856040518086815260200180602001806020018581526020018473ffffffffffffffffffffffffffffffffffffffff1673ffffffffffffffffffffffffffffffffffffffff168152602001838103835287818151815260200191508051906020019080838360005b83811015610c7c578082015181840152602081019050610c61565b50505050905090810190601f168015610ca95780820380516001836020036101000a031916815260200191505b50838103825286818151815260200191508051906020019080838360005b83811015610ce2578082015181840152602081019050610cc7565b50505050905090810190601f168015610d0f5780820380516001836020036101000a031916815260200191505b5097505050505050505060405180910390a1505050565b828054600181600116156101000203166002900490600052602060002090601f016020900481019282601f10610d6757805160ff1916838001178555610d95565b82800160010185558215610d95579182015b82811115610d94578251825591602001919060010190610d79565b5b509050610da29190610deb565b5090565b6040518060a0016040528060008152602001606081526020016060815260200160008152602001600073ffffffffffffffffffffffffffffffffffffffff1681525090565b610e0d91905b80821115610e09576000816000905550600101610df1565b5090565b9056fea265627a7a723158206e3711ee7f1240898e825ce482f4fe19ca74591e698cf96f2fceeabec7860dbc64736f6c63430005100032",
  "source": "pragma solidity ^0.5.0;\n\ncontract Decentragram {\n  string public name = \"Decentragram\";\n  \n  // Store Images\n\n  uint public apiCount = 0;\n\n  mapping(uint => Api) public apis;\n// changed tipAmount into like\n// changed hash into hashes\n// changed author into developer\n\n\n// changed Image into Api and images into apis\n\n  struct Api {\n    uint id;\n    string hashes;\n    string description;\n    uint fund;\n    address payable developer;\n\n  }\n\n  event ApiCreated(\n    uint id,\n    string hashes,\n    string description,\n    uint fund,\n    address payable developer\n\n  );\n\n\n  event ApiFunded(\n    uint id,\n    string hashes,\n    string description,\n    uint fund,\n    address payable developer\n\n  );\n\n  //Create Images\n\n  function createApi(string memory _apiHash, string memory _description) public {\n    require(bytes(_apiHash).length > 0);\n    \n    require(bytes(_description).length > 0);\n\n    require(msg.sender != address(0x0));\n\n\n    // increment\n    apiCount ++;\n    // add image to contract\n    apis[apiCount] = Api(apiCount, _apiHash, _description, 0, msg.sender);\n\n    emit ApiCreated(apiCount, _apiHash, _description, 0, msg.sender);\n  }\n\n\nfunction fundApi(uint _id) public payable {\n  require(_id > 0 && _id <= apiCount);\n  Api memory _api = apis[_id];\n  address payable _developer = _api.developer;\n  address(_developer).transfer(msg.value);\n  _api.fund = _api.fund + msg.value;\n  apis[_id] = _api;\n  emit ApiFunded(_id, _api.hashes, _api.description, _api.fund, _developer);\n}\n\n\n}\n",
  "sourcePath": "/home/zulehuma/Downloads/decentragram-starter-code/src/contracts/Decentragram.sol",
  "compiler": {
    "name": "solc",
    "version": "0.5.16+commit.9c3226ce.Emscripten.clang"
  },
  "schemaVersion": "3.4.3",
  "updatedAt": "2021-08-22T08:08:27.598Z",
  "networkType": "ethereum",
  "devdoc": {
    "methods": {}
  },
  "userdoc": {
    "methods": {}
  }
}